{
  "contractName": "Amazon",
  "abi": [
    {
      "inputs": [
        {
          "internalType": "address",
          "name": "",
          "type": "address"
        },
        {
          "internalType": "uint256",
          "name": "",
          "type": "uint256"
        }
      ],
      "name": "CartItemsOfOwner",
      "outputs": [
        {
          "internalType": "string",
          "name": "itemName",
          "type": "string"
        },
        {
          "internalType": "uint256",
          "name": "Quantity",
          "type": "uint256"
        },
        {
          "internalType": "bool",
          "name": "inStoke",
          "type": "bool"
        },
        {
          "internalType": "bool",
          "name": "isGift",
          "type": "bool"
        }
      ],
      "stateMutability": "view",
      "type": "function",
      "constant": true
    },
    {
      "inputs": [
        {
          "internalType": "address",
          "name": "",
          "type": "address"
        },
        {
          "internalType": "uint256",
          "name": "",
          "type": "uint256"
        }
      ],
      "name": "UsersOrders",
      "outputs": [
        {
          "internalType": "string",
          "name": "itemName",
          "type": "string"
        },
        {
          "internalType": "uint256",
          "name": "Quantity",
          "type": "uint256"
        },
        {
          "internalType": "string",
          "name": "addressTo",
          "type": "string"
        },
        {
          "internalType": "string",
          "name": "message",
          "type": "string"
        },
        {
          "internalType": "bool",
          "name": "isGift",
          "type": "bool"
        }
      ],
      "stateMutability": "view",
      "type": "function",
      "constant": true
    },
    {
      "inputs": [
        {
          "internalType": "uint256",
          "name": "",
          "type": "uint256"
        }
      ],
      "name": "UsersWhoPushItemsToCart",
      "outputs": [
        {
          "internalType": "address",
          "name": "",
          "type": "address"
        }
      ],
      "stateMutability": "view",
      "type": "function",
      "constant": true
    },
    {
      "inputs": [
        {
          "internalType": "uint256",
          "name": "",
          "type": "uint256"
        }
      ],
      "name": "UsersWhoRequested",
      "outputs": [
        {
          "internalType": "address",
          "name": "",
          "type": "address"
        }
      ],
      "stateMutability": "view",
      "type": "function",
      "constant": true
    },
    {
      "inputs": [
        {
          "internalType": "address[]",
          "name": "_newStaff",
          "type": "address[]"
        }
      ],
      "name": "addStaff",
      "outputs": [],
      "stateMutability": "nonpayable",
      "type": "function"
    },
    {
      "inputs": [],
      "name": "admin",
      "outputs": [
        {
          "internalType": "address",
          "name": "",
          "type": "address"
        }
      ],
      "stateMutability": "view",
      "type": "function",
      "constant": true
    },
    {
      "inputs": [
        {
          "internalType": "address",
          "name": "_newAdmin",
          "type": "address"
        }
      ],
      "name": "changeAdmin",
      "outputs": [],
      "stateMutability": "nonpayable",
      "type": "function"
    },
    {
      "inputs": [
        {
          "internalType": "string",
          "name": "",
          "type": "string"
        }
      ],
      "name": "itemsInStoke",
      "outputs": [
        {
          "internalType": "uint256",
          "name": "",
          "type": "uint256"
        }
      ],
      "stateMutability": "view",
      "type": "function",
      "constant": true
    },
    {
      "inputs": [],
      "name": "price",
      "outputs": [
        {
          "internalType": "uint256",
          "name": "",
          "type": "uint256"
        }
      ],
      "stateMutability": "view",
      "type": "function",
      "constant": true
    },
    {
      "inputs": [
        {
          "internalType": "address",
          "name": "_Staff",
          "type": "address"
        }
      ],
      "name": "removeStaff",
      "outputs": [],
      "stateMutability": "nonpayable",
      "type": "function"
    },
    {
      "inputs": [
        {
          "internalType": "address",
          "name": "",
          "type": "address"
        }
      ],
      "name": "staff",
      "outputs": [
        {
          "internalType": "bool",
          "name": "",
          "type": "bool"
        }
      ],
      "stateMutability": "view",
      "type": "function",
      "constant": true
    },
    {
      "inputs": [
        {
          "internalType": "string[]",
          "name": "_itemsName",
          "type": "string[]"
        },
        {
          "internalType": "uint256[]",
          "name": "_ItemsPrice",
          "type": "uint256[]"
        }
      ],
      "name": "addItemsToStoke",
      "outputs": [],
      "stateMutability": "nonpayable",
      "type": "function"
    },
    {
      "inputs": [
        {
          "internalType": "string[]",
          "name": "_itemName",
          "type": "string[]"
        }
      ],
      "name": "removeItemsFromStoke",
      "outputs": [],
      "stateMutability": "nonpayable",
      "type": "function"
    },
    {
      "inputs": [
        {
          "internalType": "string",
          "name": "_itemName",
          "type": "string"
        },
        {
          "internalType": "uint256",
          "name": "_Quantity",
          "type": "uint256"
        },
        {
          "internalType": "bool",
          "name": "_isGift",
          "type": "bool"
        }
      ],
      "name": "addItemsToCart",
      "outputs": [],
      "stateMutability": "nonpayable",
      "type": "function"
    },
    {
      "inputs": [
        {
          "internalType": "string",
          "name": "_itemName",
          "type": "string"
        },
        {
          "internalType": "bool",
          "name": "_isGift",
          "type": "bool"
        }
      ],
      "name": "removeItemFromCart",
      "outputs": [],
      "stateMutability": "nonpayable",
      "type": "function"
    },
    {
      "inputs": [
        {
          "internalType": "string",
          "name": "_itemName",
          "type": "string"
        },
        {
          "internalType": "uint256",
          "name": "_Quantity",
          "type": "uint256"
        },
        {
          "internalType": "bool",
          "name": "_isGift",
          "type": "bool"
        }
      ],
      "name": "changeQuantity",
      "outputs": [],
      "stateMutability": "nonpayable",
      "type": "function"
    },
    {
      "inputs": [
        {
          "internalType": "string",
          "name": "_itemName",
          "type": "string"
        },
        {
          "internalType": "bool",
          "name": "_isGift",
          "type": "bool"
        }
      ],
      "name": "setGift",
      "outputs": [],
      "stateMutability": "nonpayable",
      "type": "function"
    },
    {
      "inputs": [
        {
          "internalType": "address",
          "name": "_userAddress",
          "type": "address"
        }
      ],
      "name": "getCartItemsOfOwner",
      "outputs": [
        {
          "components": [
            {
              "internalType": "string",
              "name": "itemName",
              "type": "string"
            },
            {
              "internalType": "uint256",
              "name": "Quantity",
              "type": "uint256"
            },
            {
              "internalType": "bool",
              "name": "inStoke",
              "type": "bool"
            },
            {
              "internalType": "bool",
              "name": "isGift",
              "type": "bool"
            }
          ],
          "internalType": "struct Amazon.CartItem[]",
          "name": "_CartItemsOfOwner",
          "type": "tuple[]"
        }
      ],
      "stateMutability": "view",
      "type": "function",
      "constant": true
    },
    {
      "inputs": [
        {
          "internalType": "address",
          "name": "_user",
          "type": "address"
        }
      ],
      "name": "isUsersHasOrders",
      "outputs": [
        {
          "internalType": "bool",
          "name": "_UsersHasOrders",
          "type": "bool"
        }
      ],
      "stateMutability": "view",
      "type": "function",
      "constant": true
    },
    {
      "inputs": [
        {
          "internalType": "address",
          "name": "_userAddress",
          "type": "address"
        }
      ],
      "name": "getUsersOrders",
      "outputs": [
        {
          "components": [
            {
              "internalType": "string",
              "name": "itemName",
              "type": "string"
            },
            {
              "internalType": "uint256",
              "name": "Quantity",
              "type": "uint256"
            },
            {
              "internalType": "string",
              "name": "addressTo",
              "type": "string"
            },
            {
              "internalType": "string",
              "name": "message",
              "type": "string"
            },
            {
              "internalType": "bool",
              "name": "isGift",
              "type": "bool"
            }
          ],
          "internalType": "struct Amazon.order[]",
          "name": "_orders",
          "type": "tuple[]"
        }
      ],
      "stateMutability": "view",
      "type": "function",
      "constant": true
    },
    {
      "inputs": [
        {
          "internalType": "string",
          "name": "_itemName",
          "type": "string"
        },
        {
          "internalType": "string",
          "name": "_DeliveryAddress",
          "type": "string"
        },
        {
          "internalType": "string",
          "name": "_message",
          "type": "string"
        },
        {
          "internalType": "uint256",
          "name": "_Quantity",
          "type": "uint256"
        },
        {
          "internalType": "bool",
          "name": "isGeft",
          "type": "bool"
        }
      ],
      "name": "buyItem",
      "outputs": [],
      "stateMutability": "payable",
      "type": "function",
      "payable": true
    },
    {
      "inputs": [
        {
          "internalType": "string[]",
          "name": "_itemsName",
          "type": "string[]"
        },
        {
          "internalType": "string[]",
          "name": "_DeliveryAddress",
          "type": "string[]"
        },
        {
          "internalType": "string[]",
          "name": "_messages",
          "type": "string[]"
        },
        {
          "internalType": "uint256[]",
          "name": "_Quantitys",
          "type": "uint256[]"
        },
        {
          "internalType": "bool[]",
          "name": "_isGeft",
          "type": "bool[]"
        }
      ],
      "name": "buyItems",
      "outputs": [],
      "stateMutability": "payable",
      "type": "function",
      "payable": true
    },
    {
      "inputs": [
        {
          "internalType": "address",
          "name": "_address",
          "type": "address"
        },
        {
          "internalType": "string",
          "name": "_itemName",
          "type": "string"
        }
      ],
      "name": "requestSent",
      "outputs": [],
      "stateMutability": "nonpayable",
      "type": "function"
    },
    {
      "inputs": [],
      "name": "getProfits",
      "outputs": [],
      "stateMutability": "nonpayable",
      "type": "function"
    }
  ],
  "bytecode": "0x608060405234801561001057600080fd5b50336000806101000a81548173ffffffffffffffffffffffffffffffffffffffff021916908373ffffffffffffffffffffffffffffffffffffffff1602179055506001600260003373ffffffffffffffffffffffffffffffffffffffff1673ffffffffffffffffffffffffffffffffffffffff16815260200190815260200160002060006101000a81548160ff021916908315150217905550652d79883d2000600181905550613ed0806100c56000396000f3fe60806040526004361061014b5760003560e01c80638f283970116100b6578063c4522c921161006f578063c4522c921461049b578063de360ce8146104c4578063e5cd163e146104ed578063e83e383e1461052a578063ec7acf5714610553578063f851a440146105905761014b565b80638f2839701461036357806393ed823e1461038c578063a035b1fe146103c9578063ab5602b1146103f4578063b13833a51461041d578063b93fcb1c1461045e5761014b565b8063662c123011610108578063662c12301461022e57806369f729d1146102575780636a47fa77146102945780636ddf3086146102d45780636facbfde1461031157806370ecbcbe1461033a5761014b565b806308db950d14610150578063228a3da91461017957806335e23346146101955780633ad15258146101b15780633e3c6093146101c85780634f83158a146101f1575b600080fd5b34801561015c57600080fd5b5061017760048036038101906101729190612bb5565b6105bb565b005b610193600480360381019061018e9190612c6c565b6106a6565b005b6101af60048036038101906101aa9190612ec1565b610870565b005b3480156101bd57600080fd5b506101c6610b75565b005b3480156101d457600080fd5b506101ef60048036038101906101ea9190613023565b610c4c565b005b3480156101fd57600080fd5b50610218600480360381019061021391906130ce565b610d7f565b604051610225919061310a565b60405180910390f35b34801561023a57600080fd5b5061025560048036038101906102509190613125565b610d9f565b005b34801561026357600080fd5b5061027e60048036038101906102799190613181565b610fa0565b60405161028b91906131bd565b60405180910390f35b3480156102a057600080fd5b506102bb60048036038101906102b691906131d8565b610fdf565b6040516102cb94939291906132af565b60405180910390f35b3480156102e057600080fd5b506102fb60048036038101906102f69190613181565b6110ce565b60405161030891906131bd565b60405180910390f35b34801561031d57600080fd5b50610338600480360381019061033391906132fb565b61110d565b005b34801561034657600080fd5b50610361600480360381019061035c9190613125565b6113ac565b005b34801561036f57600080fd5b5061038a600480360381019061038591906130ce565b6116e5565b005b34801561039857600080fd5b506103b360048036038101906103ae91906130ce565b61180e565b6040516103c091906134f7565b60405180910390f35b3480156103d557600080fd5b506103de61198c565b6040516103eb9190613519565b60405180910390f35b34801561040057600080fd5b5061041b600480360381019061041691906132fb565b611992565b005b34801561042957600080fd5b50610444600480360381019061043f91906131d8565b611afa565b604051610455959493929190613534565b60405180910390f35b34801561046a57600080fd5b506104856004803603810190610480919061359c565b611cf2565b6040516104929190613519565b60405180910390f35b3480156104a757600080fd5b506104c260048036038101906104bd91906130ce565b611d20565b005b3480156104d057600080fd5b506104eb60048036038101906104e691906135e5565b611e00565b005b3480156104f957600080fd5b50610514600480360381019061050f91906130ce565b611f07565b604051610521919061310a565b60405180910390f35b34801561053657600080fd5b50610551600480360381019061054c919061365d565b611fab565b005b34801561055f57600080fd5b5061057a600480360381019061057591906130ce565b612208565b60405161058791906137ff565b60405180910390f35b34801561059c57600080fd5b506105a5612490565b6040516105b291906131bd565b60405180910390f35b600260003373ffffffffffffffffffffffffffffffffffffffff1673ffffffffffffffffffffffffffffffffffffffff16815260200190815260200160002060009054906101000a900460ff16610647576040517f08c379a000000000000000000000000000000000000000000000000000000000815260040161063e90613893565b60405180910390fd5b60005b81518110156106a2576003828281518110610668576106676138b3565b5b602002602001015160405161067d919061391e565b908152602001604051809103902060009055808061069a90613964565b91505061064a565b5050565b60006003866040516106b8919061391e565b908152602001604051809103902054116106d157600080fd5b816003866040516106e2919061391e565b9081526020016040518091039020546106fb91906139ac565b34101561070757600080fd5b600760003373ffffffffffffffffffffffffffffffffffffffff1673ffffffffffffffffffffffffffffffffffffffff1681526020019081526020016000206040518060a00160405280878152602001848152602001868152602001858152602001831515815250908060018154018082558091505060019003906000526020600020906005020160009091909190915060008201518160000190816107ad9190613c12565b506020820151816001015560408201518160020190816107cd9190613c12565b5060608201518160030190816107e39190613c12565b5060808201518160040160006101000a81548160ff02191690831515021790555050506006339080600181540180825580915050600190039060005260206000200160009091909190916101000a81548173ffffffffffffffffffffffffffffffffffffffff021916908373ffffffffffffffffffffffffffffffffffffffff1602179055505050505050565b60008060005b875181101561094d57848181518110610892576108916138b3565b5b602002602001015160038983815181106108af576108ae6138b3565b5b60200260200101516040516108c4919061391e565b9081526020016040518091039020546108dd91906139ac565b826108e89190613ce4565b915060006003898381518110610901576109006138b3565b5b6020026020010151604051610916919061391e565b908152602001604051809103902054111561093a57828061093690613964565b9350505b808061094590613964565b915050610876565b508651821461095b57600080fd5b8034101561096857600080fd5b60005b8751811015610b0857600760003373ffffffffffffffffffffffffffffffffffffffff1673ffffffffffffffffffffffffffffffffffffffff1681526020019081526020016000206040518060a001604052808a84815181106109d1576109d06138b3565b5b602002602001015181526020018784815181106109f1576109f06138b3565b5b60200260200101518152602001898481518110610a1157610a106138b3565b5b60200260200101518152602001888481518110610a3157610a306138b3565b5b60200260200101518152602001868481518110610a5157610a506138b3565b5b6020026020010151151581525090806001815401808255809150506001900390600052602060002090600502016000909190919091506000820151816000019081610a9c9190613c12565b50602082015181600101556040820151816002019081610abc9190613c12565b506060820151816003019081610ad29190613c12565b5060808201518160040160006101000a81548160ff02191690831515021790555050508080610b0090613964565b91505061096b565b506006339080600181540180825580915050600190039060005260206000200160009091909190916101000a81548173ffffffffffffffffffffffffffffffffffffffff021916908373ffffffffffffffffffffffffffffffffffffffff16021790555050505050505050565b60008054906101000a900473ffffffffffffffffffffffffffffffffffffffff1673ffffffffffffffffffffffffffffffffffffffff163373ffffffffffffffffffffffffffffffffffffffff1614610c03576040517f08c379a0000000000000000000000000000000000000000000000000000000008152600401610bfa90613dac565b60405180910390fd5b3373ffffffffffffffffffffffffffffffffffffffff166108fc479081150290604051600060405180830381858888f19350505050158015610c49573d6000803e3d6000fd5b50565b60008054906101000a900473ffffffffffffffffffffffffffffffffffffffff1673ffffffffffffffffffffffffffffffffffffffff163373ffffffffffffffffffffffffffffffffffffffff1614610cda576040517f08c379a0000000000000000000000000000000000000000000000000000000008152600401610cd190613dac565b60405180910390fd5b60005b82829050811015610d7a57600160026000858585818110610d0157610d006138b3565b5b9050602002016020810190610d1691906130ce565b73ffffffffffffffffffffffffffffffffffffffff1673ffffffffffffffffffffffffffffffffffffffff16815260200190815260200160002060006101000a81548160ff0219169083151502179055508080610d7290613964565b915050610cdd565b505050565b60026020528060005260406000206000915054906101000a900460ff1681565b6000600560003373ffffffffffffffffffffffffffffffffffffffff1673ffffffffffffffffffffffffffffffffffffffff1681526020019081526020016000208054905011610dee57600080fd5b6000610dfb3384846124b4565b90506000811115610eb557600560003373ffffffffffffffffffffffffffffffffffffffff1673ffffffffffffffffffffffffffffffffffffffff168152602001908152602001600020600182610e529190613dcc565b81548110610e6357610e626138b3565b5b906000526020600020906003020160008082016000610e829190612918565b60018201600090556002820160006101000a81549060ff02191690556002820160016101000a81549060ff021916905550505b610ebe33612664565b15610f9b5760005b600480549050811015610f99573373ffffffffffffffffffffffffffffffffffffffff1660048281548110610efe57610efd6138b3565b5b9060005260206000200160009054906101000a900473ffffffffffffffffffffffffffffffffffffffff1673ffffffffffffffffffffffffffffffffffffffff1603610f865760048181548110610f5857610f576138b3565b5b9060005260206000200160006101000a81549073ffffffffffffffffffffffffffffffffffffffff02191690555b8080610f9190613964565b915050610ec6565b505b505050565b60048181548110610fb057600080fd5b906000526020600020016000915054906101000a900473ffffffffffffffffffffffffffffffffffffffff1681565b60056020528160005260406000208181548110610ffb57600080fd5b90600052602060002090600302016000915091505080600001805461101f90613a35565b80601f016020809104026020016040519081016040528092919081815260200182805461104b90613a35565b80156110985780601f1061106d57610100808354040283529160200191611098565b820191906000526020600020905b81548152906001019060200180831161107b57829003601f168201915b5050505050908060010154908060020160009054906101000a900460ff16908060020160019054906101000a900460ff16905084565b600681815481106110de57600080fd5b906000526020600020016000915054906101000a900473ffffffffffffffffffffffffffffffffffffffff1681565b61111633612664565b1561117f576004339080600181540180825580915050600190039060005260206000200160009091909190916101000a81548173ffffffffffffffffffffffffffffffffffffffff021916908373ffffffffffffffffffffffffffffffffffffffff1602179055505b600080600385604051611192919061391e565b90815260200160405180910390205411156111ac57600190505b60006111b93386856124b4565b905060008111156112b55783600560003373ffffffffffffffffffffffffffffffffffffffff1673ffffffffffffffffffffffffffffffffffffffff1681526020019081526020016000206001836112119190613dcc565b81548110611222576112216138b3565b5b90600052602060002090600302016001015461123e9190613ce4565b600560003373ffffffffffffffffffffffffffffffffffffffff1673ffffffffffffffffffffffffffffffffffffffff16815260200190815260200160002060018361128a9190613dcc565b8154811061129b5761129a6138b3565b5b9060005260206000209060030201600101819055506113a5565b600560003373ffffffffffffffffffffffffffffffffffffffff1673ffffffffffffffffffffffffffffffffffffffff16815260200190815260200160002060405180608001604052808781526020018681526020018415158152602001851515815250908060018154018082558091505060019003906000526020600020906003020160009091909190915060008201518160000190816113579190613c12565b506020820151816001015560408201518160020160006101000a81548160ff02191690831515021790555060608201518160020160016101000a81548160ff02191690831515021790555050505b5050505050565b6000600560003373ffffffffffffffffffffffffffffffffffffffff1673ffffffffffffffffffffffffffffffffffffffff16815260200190815260200160002080549050116113fb57600080fd5b600081159050600061140e3385846124b4565b9050600061141d3386866124b4565b905060008211801561142f5750600081115b1561164157600560003373ffffffffffffffffffffffffffffffffffffffff1673ffffffffffffffffffffffffffffffffffffffff1681526020019081526020016000206001836114809190613dcc565b81548110611491576114906138b3565b5b906000526020600020906003020160010154600560003373ffffffffffffffffffffffffffffffffffffffff1673ffffffffffffffffffffffffffffffffffffffff1681526020019081526020016000206001836114ef9190613dcc565b81548110611500576114ff6138b3565b5b90600052602060002090600302016001015461151c9190613ce4565b600560003373ffffffffffffffffffffffffffffffffffffffff1673ffffffffffffffffffffffffffffffffffffffff1681526020019081526020016000206001836115689190613dcc565b81548110611579576115786138b3565b5b906000526020600020906003020160010181905550600560003373ffffffffffffffffffffffffffffffffffffffff1673ffffffffffffffffffffffffffffffffffffffff1681526020019081526020016000206001836115da9190613dcc565b815481106115eb576115ea6138b3565b5b90600052602060002090600302016000808201600061160a9190612918565b60018201600090556002820160006101000a81549060ff02191690556002820160016101000a81549060ff021916905550506116de565b6000821180156116515750600081145b156116dd5783600560003373ffffffffffffffffffffffffffffffffffffffff1673ffffffffffffffffffffffffffffffffffffffff1681526020019081526020016000206001846116a39190613dcc565b815481106116b4576116b36138b3565b5b906000526020600020906003020160020160016101000a81548160ff0219169083151502179055505b5b5050505050565b60008054906101000a900473ffffffffffffffffffffffffffffffffffffffff1673ffffffffffffffffffffffffffffffffffffffff163373ffffffffffffffffffffffffffffffffffffffff1614611773576040517f08c379a000000000000000000000000000000000000000000000000000000000815260040161176a90613dac565b60405180910390fd5b806000806101000a81548173ffffffffffffffffffffffffffffffffffffffff021916908373ffffffffffffffffffffffffffffffffffffffff1602179055506001600260008373ffffffffffffffffffffffffffffffffffffffff1673ffffffffffffffffffffffffffffffffffffffff16815260200190815260200160002060006101000a81548160ff02191690831515021790555050565b606061181982612664565b61198757600560008373ffffffffffffffffffffffffffffffffffffffff1673ffffffffffffffffffffffffffffffffffffffff168152602001908152602001600020805480602002602001604051908101604052809291908181526020016000905b8282101561198057838290600052602060002090600302016040518060800160405290816000820180546118af90613a35565b80601f01602080910402602001604051908101604052809291908181526020018280546118db90613a35565b80156119285780601f106118fd57610100808354040283529160200191611928565b820191906000526020600020905b81548152906001019060200180831161190b57829003601f168201915b50505050508152602001600182015481526020016002820160009054906101000a900460ff161515151581526020016002820160019054906101000a900460ff1615151515815250508152602001906001019061187c565b5050505090505b919050565b60015481565b6000600560003373ffffffffffffffffffffffffffffffffffffffff1673ffffffffffffffffffffffffffffffffffffffff16815260200190815260200160002080549050116119e157600080fd5b600082116119ee57600080fd5b60006119fb3385846124b4565b90506000811115611af45782600560003373ffffffffffffffffffffffffffffffffffffffff1673ffffffffffffffffffffffffffffffffffffffff168152602001908152602001600020600183611a539190613dcc565b81548110611a6457611a636138b3565b5b90600052602060002090600302016001015403611a8057600080fd5b82600560003373ffffffffffffffffffffffffffffffffffffffff1673ffffffffffffffffffffffffffffffffffffffff168152602001908152602001600020600183611acd9190613dcc565b81548110611ade57611add6138b3565b5b9060005260206000209060030201600101819055505b50505050565b60076020528160005260406000208181548110611b1657600080fd5b906000526020600020906005020160009150915050806000018054611b3a90613a35565b80601f0160208091040260200160405190810160405280929190818152602001828054611b6690613a35565b8015611bb35780601f10611b8857610100808354040283529160200191611bb3565b820191906000526020600020905b815481529060010190602001808311611b9657829003601f168201915b505050505090806001015490806002018054611bce90613a35565b80601f0160208091040260200160405190810160405280929190818152602001828054611bfa90613a35565b8015611c475780601f10611c1c57610100808354040283529160200191611c47565b820191906000526020600020905b815481529060010190602001808311611c2a57829003601f168201915b505050505090806003018054611c5c90613a35565b80601f0160208091040260200160405190810160405280929190818152602001828054611c8890613a35565b8015611cd55780601f10611caa57610100808354040283529160200191611cd5565b820191906000526020600020905b815481529060010190602001808311611cb857829003601f168201915b5050505050908060040160009054906101000a900460ff16905085565b6003818051602081018201805184825260208301602085012081835280955050505050506000915090505481565b60008054906101000a900473ffffffffffffffffffffffffffffffffffffffff1673ffffffffffffffffffffffffffffffffffffffff163373ffffffffffffffffffffffffffffffffffffffff1614611dae576040517f08c379a0000000000000000000000000000000000000000000000000000000008152600401611da590613dac565b60405180910390fd5b600260008273ffffffffffffffffffffffffffffffffffffffff1673ffffffffffffffffffffffffffffffffffffffff16815260200190815260200160002060006101000a81549060ff021916905550565b600260003373ffffffffffffffffffffffffffffffffffffffff1673ffffffffffffffffffffffffffffffffffffffff16815260200190815260200160002060009054906101000a900460ff16611e8c576040517f08c379a0000000000000000000000000000000000000000000000000000000008152600401611e8390613893565b60405180910390fd5b60005b8251811015611f0257818181518110611eab57611eaa6138b3565b5b60200260200101516003848381518110611ec857611ec76138b3565b5b6020026020010151604051611edd919061391e565b9081526020016040518091039020819055508080611efa90613964565b915050611e8f565b505050565b600080600090505b600680549050811015611fa5578273ffffffffffffffffffffffffffffffffffffffff1660068281548110611f4757611f466138b3565b5b9060005260206000200160009054906101000a900473ffffffffffffffffffffffffffffffffffffffff1673ffffffffffffffffffffffffffffffffffffffff1603611f9257600191505b8080611f9d90613964565b915050611f0f565b50919050565b600260003373ffffffffffffffffffffffffffffffffffffffff1673ffffffffffffffffffffffffffffffffffffffff16815260200190815260200160002060009054906101000a900460ff16612037576040517f08c379a000000000000000000000000000000000000000000000000000000000815260040161202e90613893565b60405180910390fd5b60005b600760008473ffffffffffffffffffffffffffffffffffffffff1673ffffffffffffffffffffffffffffffffffffffff168152602001908152602001600020805490508110156122035781604051602001612095919061391e565b60405160208183030381529060405280519060200120600760008573ffffffffffffffffffffffffffffffffffffffff1673ffffffffffffffffffffffffffffffffffffffff16815260200190815260200160002082815481106120fc576120fb6138b3565b5b906000526020600020906005020160000160405160200161211d9190613e83565b60405160208183030381529060405280519060200120036121f057600760008473ffffffffffffffffffffffffffffffffffffffff1673ffffffffffffffffffffffffffffffffffffffff1681526020019081526020016000208181548110612189576121886138b3565b5b9060005260206000209060050201600080820160006121a89190612918565b60018201600090556002820160006121c09190612918565b6003820160006121d09190612918565b6004820160006101000a81549060ff021916905550506121ef83612755565b5b80806121fb90613964565b91505061203a565b505050565b606061221382611f07565b1561248b57600760008373ffffffffffffffffffffffffffffffffffffffff1673ffffffffffffffffffffffffffffffffffffffff168152602001908152602001600020805480602002602001604051908101604052809291908181526020016000905b8282101561248457838290600052602060002090600502016040518060a00160405290816000820180546122aa90613a35565b80601f01602080910402602001604051908101604052809291908181526020018280546122d690613a35565b80156123235780601f106122f857610100808354040283529160200191612323565b820191906000526020600020905b81548152906001019060200180831161230657829003601f168201915b505050505081526020016001820154815260200160028201805461234690613a35565b80601f016020809104026020016040519081016040528092919081815260200182805461237290613a35565b80156123bf5780601f10612394576101008083540402835291602001916123bf565b820191906000526020600020905b8154815290600101906020018083116123a257829003601f168201915b505050505081526020016003820180546123d890613a35565b80601f016020809104026020016040519081016040528092919081815260200182805461240490613a35565b80156124515780601f1061242657610100808354040283529160200191612451565b820191906000526020600020905b81548152906001019060200180831161243457829003601f168201915b505050505081526020016004820160009054906101000a900460ff16151515158152505081526020019060010190612277565b5050505090505b919050565b60008054906101000a900473ffffffffffffffffffffffffffffffffffffffff1681565b600080600090505b600560008673ffffffffffffffffffffffffffffffffffffffff1673ffffffffffffffffffffffffffffffffffffffff1681526020019081526020016000208054905081101561265c5783604051602001612517919061391e565b60405160208183030381529060405280519060200120600560008773ffffffffffffffffffffffffffffffffffffffff1673ffffffffffffffffffffffffffffffffffffffff168152602001908152602001600020828154811061257e5761257d6138b3565b5b906000526020600020906003020160000160405160200161259f9190613e83565b604051602081830303815290604052805190602001201480156126345750821515600560008773ffffffffffffffffffffffffffffffffffffffff1673ffffffffffffffffffffffffffffffffffffffff1681526020019081526020016000208281548110612611576126106138b3565b5b906000526020600020906003020160020160019054906101000a900460ff161515145b15612649576001816126469190613ce4565b91505b808061265490613964565b9150506124bc565b509392505050565b60008060005b600560008573ffffffffffffffffffffffffffffffffffffffff1673ffffffffffffffffffffffffffffffffffffffff16815260200190815260200160002080549050811015612741576000600560008673ffffffffffffffffffffffffffffffffffffffff1673ffffffffffffffffffffffffffffffffffffffff1681526020019081526020016000208281548110612707576127066138b3565b5b906000526020600020906003020160010154111561272e57818061272a90613964565b9250505b808061273990613964565b91505061266a565b506000810361274f57600191505b50919050565b600080600090505b600760008473ffffffffffffffffffffffffffffffffffffffff1673ffffffffffffffffffffffffffffffffffffffff16815260200190815260200160002080549050811015612833576000600760008573ffffffffffffffffffffffffffffffffffffffff1673ffffffffffffffffffffffffffffffffffffffff16815260200190815260200160002082815481106127fa576127f96138b3565b5b9060005260206000209060050201600101541461282057818061281c90613964565b9250505b808061282b90613964565b91505061275d565b50600081036129145760005b600680549050811015612912578273ffffffffffffffffffffffffffffffffffffffff1660068281548110612877576128766138b3565b5b9060005260206000200160009054906101000a900473ffffffffffffffffffffffffffffffffffffffff1673ffffffffffffffffffffffffffffffffffffffff16036128ff57600681815481106128d1576128d06138b3565b5b9060005260206000200160006101000a81549073ffffffffffffffffffffffffffffffffffffffff02191690555b808061290a90613964565b91505061283f565b505b5050565b50805461292490613a35565b6000825580601f106129365750612955565b601f0160209004906000526020600020908101906129549190612958565b5b50565b5b80821115612971576000816000905550600101612959565b5090565b6000604051905090565b600080fd5b600080fd5b600080fd5b6000601f19601f8301169050919050565b7f4e487b7100000000000000000000000000000000000000000000000000000000600052604160045260246000fd5b6129d78261298e565b810181811067ffffffffffffffff821117156129f6576129f561299f565b5b80604052505050565b6000612a09612975565b9050612a1582826129ce565b919050565b600067ffffffffffffffff821115612a3557612a3461299f565b5b602082029050602081019050919050565b600080fd5b600080fd5b600067ffffffffffffffff821115612a6b57612a6a61299f565b5b612a748261298e565b9050602081019050919050565b82818337600083830152505050565b6000612aa3612a9e84612a50565b6129ff565b905082815260208101848484011115612abf57612abe612a4b565b5b612aca848285612a81565b509392505050565b600082601f830112612ae757612ae6612989565b5b8135612af7848260208601612a90565b91505092915050565b6000612b13612b0e84612a1a565b6129ff565b90508083825260208201905060208402830185811115612b3657612b35612a46565b5b835b81811015612b7d57803567ffffffffffffffff811115612b5b57612b5a612989565b5b808601612b688982612ad2565b85526020850194505050602081019050612b38565b5050509392505050565b600082601f830112612b9c57612b9b612989565b5b8135612bac848260208601612b00565b91505092915050565b600060208284031215612bcb57612bca61297f565b5b600082013567ffffffffffffffff811115612be957612be8612984565b5b612bf584828501612b87565b91505092915050565b6000819050919050565b612c1181612bfe565b8114612c1c57600080fd5b50565b600081359050612c2e81612c08565b92915050565b60008115159050919050565b612c4981612c34565b8114612c5457600080fd5b50565b600081359050612c6681612c40565b92915050565b600080600080600060a08688031215612c8857612c8761297f565b5b600086013567ffffffffffffffff811115612ca657612ca5612984565b5b612cb288828901612ad2565b955050602086013567ffffffffffffffff811115612cd357612cd2612984565b5b612cdf88828901612ad2565b945050604086013567ffffffffffffffff811115612d0057612cff612984565b5b612d0c88828901612ad2565b9350506060612d1d88828901612c1f565b9250506080612d2e88828901612c57565b9150509295509295909350565b600067ffffffffffffffff821115612d5657612d5561299f565b5b602082029050602081019050919050565b6000612d7a612d7584612d3b565b6129ff565b90508083825260208201905060208402830185811115612d9d57612d9c612a46565b5b835b81811015612dc65780612db28882612c1f565b845260208401935050602081019050612d9f565b5050509392505050565b600082601f830112612de557612de4612989565b5b8135612df5848260208601612d67565b91505092915050565b600067ffffffffffffffff821115612e1957612e1861299f565b5b602082029050602081019050919050565b6000612e3d612e3884612dfe565b6129ff565b90508083825260208201905060208402830185811115612e6057612e5f612a46565b5b835b81811015612e895780612e758882612c57565b845260208401935050602081019050612e62565b5050509392505050565b600082601f830112612ea857612ea7612989565b5b8135612eb8848260208601612e2a565b91505092915050565b600080600080600060a08688031215612edd57612edc61297f565b5b600086013567ffffffffffffffff811115612efb57612efa612984565b5b612f0788828901612b87565b955050602086013567ffffffffffffffff811115612f2857612f27612984565b5b612f3488828901612b87565b945050604086013567ffffffffffffffff811115612f5557612f54612984565b5b612f6188828901612b87565b935050606086013567ffffffffffffffff811115612f8257612f81612984565b5b612f8e88828901612dd0565b925050608086013567ffffffffffffffff811115612faf57612fae612984565b5b612fbb88828901612e93565b9150509295509295909350565b600080fd5b60008083601f840112612fe357612fe2612989565b5b8235905067ffffffffffffffff81111561300057612fff612fc8565b5b60208301915083602082028301111561301c5761301b612a46565b5b9250929050565b6000806020838503121561303a5761303961297f565b5b600083013567ffffffffffffffff81111561305857613057612984565b5b61306485828601612fcd565b92509250509250929050565b600073ffffffffffffffffffffffffffffffffffffffff82169050919050565b600061309b82613070565b9050919050565b6130ab81613090565b81146130b657600080fd5b50565b6000813590506130c8816130a2565b92915050565b6000602082840312156130e4576130e361297f565b5b60006130f2848285016130b9565b91505092915050565b61310481612c34565b82525050565b600060208201905061311f60008301846130fb565b92915050565b6000806040838503121561313c5761313b61297f565b5b600083013567ffffffffffffffff81111561315a57613159612984565b5b61316685828601612ad2565b925050602061317785828601612c57565b9150509250929050565b6000602082840312156131975761319661297f565b5b60006131a584828501612c1f565b91505092915050565b6131b781613090565b82525050565b60006020820190506131d260008301846131ae565b92915050565b600080604083850312156131ef576131ee61297f565b5b60006131fd858286016130b9565b925050602061320e85828601612c1f565b9150509250929050565b600081519050919050565b600082825260208201905092915050565b60005b83811015613252578082015181840152602081019050613237565b83811115613261576000848401525b50505050565b600061327282613218565b61327c8185613223565b935061328c818560208601613234565b6132958161298e565b840191505092915050565b6132a981612bfe565b82525050565b600060808201905081810360008301526132c98187613267565b90506132d860208301866132a0565b6132e560408301856130fb565b6132f260608301846130fb565b95945050505050565b6000806000606084860312156133145761331361297f565b5b600084013567ffffffffffffffff81111561333257613331612984565b5b61333e86828701612ad2565b935050602061334f86828701612c1f565b925050604061336086828701612c57565b9150509250925092565b600081519050919050565b600082825260208201905092915050565b6000819050602082019050919050565b600082825260208201905092915050565b60006133b282613218565b6133bc8185613396565b93506133cc818560208601613234565b6133d58161298e565b840191505092915050565b6133e981612bfe565b82525050565b6133f881612c34565b82525050565b6000608083016000830151848203600086015261341b82826133a7565b915050602083015161343060208601826133e0565b50604083015161344360408601826133ef565b50606083015161345660608601826133ef565b508091505092915050565b600061346d83836133fe565b905092915050565b6000602082019050919050565b600061348d8261336a565b6134978185613375565b9350836020820285016134a985613386565b8060005b858110156134e557848403895281516134c68582613461565b94506134d183613475565b925060208a019950506001810190506134ad565b50829750879550505050505092915050565b600060208201905081810360008301526135118184613482565b905092915050565b600060208201905061352e60008301846132a0565b92915050565b600060a082019050818103600083015261354e8188613267565b905061355d60208301876132a0565b818103604083015261356f8186613267565b905081810360608301526135838185613267565b905061359260808301846130fb565b9695505050505050565b6000602082840312156135b2576135b161297f565b5b600082013567ffffffffffffffff8111156135d0576135cf612984565b5b6135dc84828501612ad2565b91505092915050565b600080604083850312156135fc576135fb61297f565b5b600083013567ffffffffffffffff81111561361a57613619612984565b5b61362685828601612b87565b925050602083013567ffffffffffffffff81111561364757613646612984565b5b61365385828601612dd0565b9150509250929050565b600080604083850312156136745761367361297f565b5b6000613682858286016130b9565b925050602083013567ffffffffffffffff8111156136a3576136a2612984565b5b6136af85828601612ad2565b9150509250929050565b600081519050919050565b600082825260208201905092915050565b6000819050602082019050919050565b600060a083016000830151848203600086015261370282826133a7565b915050602083015161371760208601826133e0565b506040830151848203604086015261372f82826133a7565b9150506060830151848203606086015261374982826133a7565b915050608083015161375e60808601826133ef565b508091505092915050565b600061377583836136e5565b905092915050565b6000602082019050919050565b6000613795826136b9565b61379f81856136c4565b9350836020820285016137b1856136d5565b8060005b858110156137ed57848403895281516137ce8582613769565b94506137d98361377d565b925060208a019950506001810190506137b5565b50829750879550505050505092915050565b60006020820190508181036000830152613819818461378a565b905092915050565b7f546869732066756e6374696f6e206973207265737472696374656420746f207460008201527f686520636f6e7472616374277320537461666600000000000000000000000000602082015250565b600061387d603383613223565b915061388882613821565b604082019050919050565b600060208201905081810360008301526138ac81613870565b9050919050565b7f4e487b7100000000000000000000000000000000000000000000000000000000600052603260045260246000fd5b600081905092915050565b60006138f882613218565b61390281856138e2565b9350613912818560208601613234565b80840191505092915050565b600061392a82846138ed565b915081905092915050565b7f4e487b7100000000000000000000000000000000000000000000000000000000600052601160045260246000fd5b600061396f82612bfe565b91507fffffffffffffffffffffffffffffffffffffffffffffffffffffffffffffffff82036139a1576139a0613935565b5b600182019050919050565b60006139b782612bfe565b91506139c283612bfe565b9250817fffffffffffffffffffffffffffffffffffffffffffffffffffffffffffffffff04831182151516156139fb576139fa613935565b5b828202905092915050565b7f4e487b7100000000000000000000000000000000000000000000000000000000600052602260045260246000fd5b60006002820490506001821680613a4d57607f821691505b602082108103613a6057613a5f613a06565b5b50919050565b60008190508160005260206000209050919050565b60006020601f8301049050919050565b600082821b905092915050565b600060088302613ac87fffffffffffffffffffffffffffffffffffffffffffffffffffffffffffffffff82613a8b565b613ad28683613a8b565b95508019841693508086168417925050509392505050565b6000819050919050565b6000613b0f613b0a613b0584612bfe565b613aea565b612bfe565b9050919050565b6000819050919050565b613b2983613af4565b613b3d613b3582613b16565b848454613a98565b825550505050565b600090565b613b52613b45565b613b5d818484613b20565b505050565b5b81811015613b8157613b76600082613b4a565b600181019050613b63565b5050565b601f821115613bc657613b9781613a66565b613ba084613a7b565b81016020851015613baf578190505b613bc3613bbb85613a7b565b830182613b62565b50505b505050565b600082821c905092915050565b6000613be960001984600802613bcb565b1980831691505092915050565b6000613c028383613bd8565b9150826002028217905092915050565b613c1b82613218565b67ffffffffffffffff811115613c3457613c3361299f565b5b613c3e8254613a35565b613c49828285613b85565b600060209050601f831160018114613c7c5760008415613c6a578287015190505b613c748582613bf6565b865550613cdc565b601f198416613c8a86613a66565b60005b82811015613cb257848901518255600182019150602085019450602081019050613c8d565b86831015613ccf5784890151613ccb601f891682613bd8565b8355505b6001600288020188555050505b505050505050565b6000613cef82612bfe565b9150613cfa83612bfe565b9250827fffffffffffffffffffffffffffffffffffffffffffffffffffffffffffffffff03821115613d2f57613d2e613935565b5b828201905092915050565b7f546869732066756e6374696f6e206973207265737472696374656420746f207460008201527f686520636f6e747261637427732061646d696e00000000000000000000000000602082015250565b6000613d96603383613223565b9150613da182613d3a565b604082019050919050565b60006020820190508181036000830152613dc581613d89565b9050919050565b6000613dd782612bfe565b9150613de283612bfe565b925082821015613df557613df4613935565b5b828203905092915050565b60008154613e0d81613a35565b613e1781866138e2565b94506001821660008114613e325760018114613e4757613e7a565b60ff1983168652811515820286019350613e7a565b613e5085613a66565b60005b83811015613e7257815481890152600182019150602081019050613e53565b838801955050505b50505092915050565b6000613e8f8284613e00565b91508190509291505056fea2646970667358221220b1b78334770ea7f709c921ee80ba948bc883a17042872bb772904840b38ca18664736f6c634300080f0033",
  "immutableReferences": {},
  "source": "// SPDX-License-Identifier: MIT\npragma solidity >=0.4.22 <0.9.0;\n\nimport \"./Authorized.sol\";\n\ncontract Amazon is Authorized {\n    mapping(string => uint256) public itemsInStoke;\n\n    struct CartItem {\n        string itemName;\n        uint256 Quantity;\n        bool inStoke;\n        bool isGift;\n    }\n    address[] public UsersWhoPushItemsToCart;\n\n    mapping(address => CartItem[]) public CartItemsOfOwner;\n\n    struct order {\n        string itemName;\n        uint256 Quantity;\n        string addressTo;\n        string message;\n        bool isGift;\n    }\n    address[] public UsersWhoRequested;\n\n    mapping(address => order[]) public UsersOrders;\n\n    function addItemsToStoke(\n        string[] memory _itemsName,\n        uint256[] memory _ItemsPrice\n    ) public onlyStaff {\n        for (uint256 i = 0; i < _itemsName.length; i++) {\n            itemsInStoke[_itemsName[i]] = _ItemsPrice[i];\n        }\n    }\n\n    function removeItemsFromStoke(string[] memory _itemName) public onlyStaff {\n        for (uint256 i = 0; i < _itemName.length; i++) {\n            delete itemsInStoke[_itemName[i]];\n        }\n    }\n\n    //  check if item Already in owner Cart\n    function chakeIfItemInUserCart(\n        address _owner,\n        string memory _itemName,\n        bool _isGift\n    ) private view returns (uint256 _indexOfItem) {\n        for (uint256 i = 0; i < CartItemsOfOwner[_owner].length; i++) {\n            if (\n                keccak256(\n                    abi.encodePacked(CartItemsOfOwner[_owner][i].itemName)\n                ) ==\n                keccak256(abi.encodePacked(_itemName)) &&\n                CartItemsOfOwner[_owner][i].isGift == _isGift\n            ) {\n                _indexOfItem = i + 1;\n            }\n        }\n        return _indexOfItem;\n    }\n\n    // check Cart Items of owner is it empty\n    function checkCartItemsIsItEmpty(address _owner)\n        private\n        view\n        returns (bool _isCartImpty)\n    {\n        uint256 itemsLength;\n\n        for (uint256 i = 0; i < CartItemsOfOwner[_owner].length; i++) {\n            if (CartItemsOfOwner[_owner][i].Quantity > 0) {\n                itemsLength++;\n            }\n        }\n        if (itemsLength == 0) {\n            _isCartImpty = true;\n        }\n        return _isCartImpty;\n    }\n\n    function addItemsToCart(\n        string memory _itemName,\n        uint256 _Quantity,\n        bool _isGift\n    ) public {\n        if (checkCartItemsIsItEmpty(msg.sender)) {\n            UsersWhoPushItemsToCart.push(msg.sender);\n        }\n\n        bool _inStoke;\n        if (itemsInStoke[_itemName] > 0) {\n            _inStoke = true;\n        }\n\n        uint256 indexOfItem = chakeIfItemInUserCart(\n            msg.sender,\n            _itemName,\n            _isGift\n        );\n        if (indexOfItem > 0) {\n            CartItemsOfOwner[msg.sender][indexOfItem - 1].Quantity =\n                CartItemsOfOwner[msg.sender][indexOfItem - 1].Quantity +\n                _Quantity;\n        } else {\n            CartItemsOfOwner[msg.sender].push(\n                CartItem(_itemName, _Quantity, _inStoke, _isGift)\n            );\n        }\n    }\n\n    function removeItemFromCart(string memory _itemName, bool _isGift) public {\n        require(CartItemsOfOwner[msg.sender].length > 0);\n        uint256 _indexOfItem = chakeIfItemInUserCart(\n            msg.sender,\n            _itemName,\n            _isGift\n        );\n        if (_indexOfItem > 0) {\n            delete CartItemsOfOwner[msg.sender][_indexOfItem - 1];\n        }\n        if (checkCartItemsIsItEmpty(msg.sender)) {\n            for (uint256 i = 0; i < UsersWhoPushItemsToCart.length; i++) {\n                if (UsersWhoPushItemsToCart[i] == msg.sender) {\n                    delete UsersWhoPushItemsToCart[i];\n                }\n            }\n        }\n    }\n\n    function changeQuantity(\n        string memory _itemName,\n        uint256 _Quantity,\n        bool _isGift\n    ) public {\n        require(CartItemsOfOwner[msg.sender].length > 0);\n        require(_Quantity > 0);\n        uint256 _indexOfItem = chakeIfItemInUserCart(\n            msg.sender,\n            _itemName,\n            _isGift\n        );\n\n        if (_indexOfItem > 0) {\n            require(\n                CartItemsOfOwner[msg.sender][_indexOfItem - 1].Quantity !=\n                    _Quantity\n            );\n            CartItemsOfOwner[msg.sender][_indexOfItem - 1].Quantity = _Quantity;\n        }\n    }\n\n    function setGift(string memory _itemName, bool _isGift) public {\n        require(CartItemsOfOwner[msg.sender].length > 0);\n        bool _itemisGift = !_isGift;\n        uint256 _indexOfProduct = chakeIfItemInUserCart(\n            msg.sender,\n            _itemName,\n            _itemisGift\n        );\n        uint256 _indexOfOppositeProduct = chakeIfItemInUserCart(\n            msg.sender,\n            _itemName,\n            _isGift\n        );\n\n        if (_indexOfProduct > 0 && _indexOfOppositeProduct > 0) {\n            CartItemsOfOwner[msg.sender][_indexOfOppositeProduct - 1].Quantity =\n                CartItemsOfOwner[msg.sender][_indexOfOppositeProduct - 1]\n                    .Quantity +\n                CartItemsOfOwner[msg.sender][_indexOfProduct - 1].Quantity;\n\n            delete CartItemsOfOwner[msg.sender][_indexOfProduct - 1];\n        } else if (_indexOfProduct > 0 && _indexOfOppositeProduct == 0) {\n            CartItemsOfOwner[msg.sender][_indexOfProduct - 1].isGift = _isGift;\n        }\n    }\n\n    function getCartItemsOfOwner(address _userAddress)\n        public\n        view\n        returns (CartItem[] memory _CartItemsOfOwner)\n    {\n        if (!checkCartItemsIsItEmpty(_userAddress)) {\n            _CartItemsOfOwner = CartItemsOfOwner[_userAddress];\n        }\n        return _CartItemsOfOwner;\n    }\n\n    function isUsersHasOrders(address _user)\n        public\n        view\n        returns (bool _UsersHasOrders)\n    {\n        for (uint256 i = 0; i < UsersWhoRequested.length; i++) {\n            if (UsersWhoRequested[i] == _user) {\n                _UsersHasOrders = true;\n            }\n        }\n        return _UsersHasOrders;\n    }\n\n    function getUsersOrders(address _userAddress)\n        public\n        view\n        returns (order[] memory _orders)\n    {\n        if (isUsersHasOrders(_userAddress)) {\n            _orders = UsersOrders[_userAddress];\n        }\n        return _orders;\n    }\n\n    function buyItem(\n        string memory _itemName,\n        string memory _DeliveryAddress,\n        string memory _message,\n        uint256 _Quantity,\n        bool isGeft\n    ) public payable {\n        require(itemsInStoke[_itemName] > 0);\n        require(msg.value >= (itemsInStoke[_itemName] * _Quantity));\n\n        UsersOrders[msg.sender].push(\n            order(_itemName, _Quantity, _DeliveryAddress, _message, isGeft)\n        );\n        UsersWhoRequested.push(msg.sender);\n    }\n\n    function buyItems(\n        string[] memory _itemsName,\n        string[] memory _DeliveryAddress,\n        string[] memory _messages,\n        uint256[] memory _Quantitys,\n        bool[] memory _isGeft\n    ) public payable {\n        uint256 _itemsInStoke;\n        uint256 _totalAmounts;\n        for (uint256 i = 0; i < _itemsName.length; i++) {\n            _totalAmounts =\n                _totalAmounts +\n                itemsInStoke[_itemsName[i]] *\n                _Quantitys[i];\n\n            if (itemsInStoke[_itemsName[i]] > 0) {\n                _itemsInStoke++;\n            }\n        }\n\n        require(_itemsInStoke == _itemsName.length);\n        require(msg.value >= _totalAmounts);\n\n        for (uint256 j = 0; j < _itemsName.length; j++) {\n            UsersOrders[msg.sender].push(\n                order(\n                    _itemsName[j],\n                    _Quantitys[j],\n                    _DeliveryAddress[j],\n                    _messages[j],\n                    _isGeft[j]\n                )\n            );\n        }\n        UsersWhoRequested.push(msg.sender);\n    }\n\n    // check Users Orders of adderss is it empty\n    function checkUsersOrders(address _user) private {\n        uint256 _UsersOrders;\n        for (uint256 i = 0; i < UsersOrders[_user].length; i++) {\n            if (UsersOrders[_user][i].Quantity != 0) {\n                _UsersOrders++;\n            }\n        }\n        if (_UsersOrders == 0) {\n            for (uint256 i = 0; i < UsersWhoRequested.length; i++) {\n                if (UsersWhoRequested[i] == _user) {\n                    delete UsersWhoRequested[i];\n                }\n            }\n        }\n    }\n\n    // The request has been sent successfully\n\n    function requestSent(address _address, string memory _itemName)\n        public\n        onlyStaff\n    {\n        for (uint256 i = 0; i < UsersOrders[_address].length; i++) {\n            if (\n                keccak256(\n                    abi.encodePacked(UsersOrders[_address][i].itemName)\n                ) == keccak256(abi.encodePacked(_itemName))\n            ) {\n                delete UsersOrders[_address][i];\n                checkUsersOrders(_address);\n            }\n        }\n    }\n\n    function getProfits() public onlyAdmin {\n        payable(msg.sender).transfer(address(this).balance);\n    }\n}\n",
  "sourcePath": "C:\\Users\\hamza\\Desktop\\web3-tasks\\9_web3_amazon\\contracts\\Amazon.sol",
  "compiler": {
    "name": "solc",
    "version": "0.8.15+commit.e14f2714.Emscripten.clang"
  },
  "schemaVersion": "3.4.8",
  "updatedAt": "2022-07-30T01:25:17.698Z",
  "networkType": "ethereum",
  "devdoc": {
    "kind": "dev",
    "methods": {},
    "version": 1
  },
  "userdoc": {
    "kind": "user",
    "methods": {},
    "version": 1
  }
}